:100000000C9469050C9491050C9491050C94910540
:100010000C9491050C9491050C9491050C94910508
:100020000C9491050C9491050C9491050C949105F8
:100030000C9491050C94D23A0C9491050C94910572
:100040000C9495380C9491050C945D380C943738C9
:100050000C9491050C9491050C9491050C949105C8
:100060000C94F0380C94910500000000000008008A
:10007000000000000000FF0878CD8A88CD7A28387B
:100080000A1C32727E32323E72723E000000000064
:100090000000000000000000000000000000000060
:1000A0000000020000015F0307000705147F147FB2
:1000B0001405242A7F2A1205231308646205364991
:1000C000562050020403031C22410341221C052A2E
:1000D0001C7F1C2A0508083E0808028060050808E5
:1000E000080808026060052010080402053E514916
:1000F000453E03427F400572494949460521414931
:100100004D33051814127F10052745454539053C28
:100110004A494931054121110907053649494936FE
:1001200005464949291E0114028068040814224129
:100130000514141414140441221408050201590969
:1001400006053E415D594E057C1211127C057F4922
:10015000494936053E41414122057F4141413E0525
:100160007F49494941057F09090901053E4141513E
:1001700073057F0808087F03417F41052040413F08
:1001800001057F08142241057F40404040057F0261
:100190001C027F057F0408107F053E4141413E055A
:1001A0007F09090906053E4151215E057F0919298C
:1001B000460526494949320503017F0103053F40B1
:1001C00040403F051F2040201F053F4038403F056D
:1001D0006314081463050304780403056159494D49
:1001E00043037F41410502040810200341417F057C
:1001F000040201020405404040404002030405207F
:1002000054547840057F28444438053844444428F1
:1002100005384444287F05385454541804087E098E
:10022000020518A4A49C78057F0804047803447D83
:1002300040044080807A047F10284403417F4005B9
:100240007C04780478057C08040478053844444428
:100250003805FC182424180518242418FC057C08EB
:1002600004040805485454542404043F4424053C21
:100270004040207C051C2040201C053C4030403C78
:10028000054428102844054C9090907C0544645403
:100290004C44030836410177034136080502010248
:1002A00004020006143E555541220002806005C03C
:1002B000887E0903048060806008606000606000E0
:1002C000606003047E0403147E140402010102072B
:1002D00023136864026160054855565524030814C9
:1002E00022063E41417F494900054465564D440080
:1002F00000020304020403040304030404040304CB
:10030000030400183C180308080805080808080832
:10031000040201020107010F01000F020F054855F9
:1003200056552403221408073844447C54540800CA
:10033000054465564D44050C1160110C0200000186
:100340007D053C247E242405487E49416605221C07
:10035000141C22052B2FFC2F2B0177046689956A2C
:1003600003010001073E415D5555413E030D0D0F50
:100370000508142A142205080808083800073E4119
:100380007F4B75413E050101010101030205020594
:1003900044445F4444031915130311151F0202015D
:1003A00004FC40403C0506097F017F0218180380C9
:1003B000806002021F04060909060522142A140897
:1003C00006402F102834FA06402F10C8ACBA065544
:1003D000351F2834FA0530484D402005781415168D
:1003E00078057816151478057A1515157A05781696
:1003F00015167905781514157805781415147806EE
:100400007C0A097F4949051EA1A16112047C555649
:1004100044047C565544047E555546047C55544549
:1004200003447D4603447E4503467D4603457C45A3
:1004300006047F4541413E057C0A11227D05384472
:10044000454638053846454438053A4545453A0558
:1004500038464546390538454445380522140814C0
:100460002207403E5149453E01053C4142403C0582
:100470003C4042413C053A4141413A053C41404102
:100480003C050C1062110C047F12120C04FE252591
:100490001A052054557A40052054567940052255B6
:1004A000557942052056557A410520555479400525
:1004B0002054557840072054547C5454080518247F
:1004C000A4E428053854555658053854565558054F
:1004D0003A5555555A05385554555803447D4203ED
:1004E000447E4103467D4203457C4104304B4A3DF6
:1004F000047A090A710538444546380538464544AA
:1005000038053A4545453A053846454639053845A2
:100510004445380508082A0808064038544C443A2F
:10052000053C4142207C053C4042217C053A41414A
:10053000217A053C4140217C09007EFFB1B5B5CD53
:10054000FF7E08FFC1819F9F81C1FF087EFFD3B559
:10055000ADCBFF7E4602000000FF0800053E5B4F6A
:100560005B3E053E6B4F6B3E051C3E7C3E1C0518FA
:100570003C7E3C18051C577D571C051C5E7F5E1C8D
:100580000400183C1805FFE7C3E7FF04001824180F
:1005900005FFE7DBE7FF0530483A060E0526297917
:1005A000292605407F05050705407F05253F055A9B
:1005B0003CE73C5A057F3E1C1C0805081C1C3E7F7E
:1005C0000514227F221405FFFFFFFFFF05F0F0F066
:1005D000F0F003FFFFFF05000000FFFF050F0F0F06
:1005E0000F0F0508047E04080510207E2010050862
:1005F000082A1C0805081C2A080805AA005500AA94
:1006000005AA55AA55AA0530383E383005060E3ED3
:100610000E06020000015F0307000705147F147F28
:100620001405444AFF4A32056313086463053649DA
:100630004936480107033E41410341413E05082A2E
:100640001C2A080508083E08080260E0040808089B
:1006500008026060056010080403053E5149453EEC
:1006600003427F4005714949494605414949493698
:10067000050F0808087F054F49494931053E49499A
:10068000493005030101017F053649494936050610
:100690004949493E026C6C026CEC030814220414B4
:1006A00014141403221408050159090906053E41D2
:1006B0005D594E057E0909097E057F494949360580
:1006C0003E41414141057F4141413E057F49494904
:1006D00041057F09090901053E41414979057F0826
:1006E00008087F03417F4105304141413F057F08B4
:1006F000142241057F40404040057F020C027F05E7
:100700007F0408107F053E4141413E057F090909EC
:1007100006053E4141617E057F0919294605464986
:100720004949310501017F0101053F4040403F0536
:100730001F2040201F053F4038403F056314081428
:1007400063050304780403056151494543037F4170
:10075000410503040810600341417F0504020102C2
:1007600004048080808003010204043844447C0433
:100770007F4444380438444444043844447F0438B3
:1007800054545804047E05010418A4A47C047F0476
:100790000478017D0384857C047F102844017F0553
:1007A0007C04780478047C040478043844443804D5
:1007B000FC24241804182424FC047C040408045891
:1007C00054543403047F04043C40407C041C204007
:1007D0007C053C4030403C046C10106C041CA0A014
:1007E0007C046454544C0408364141017F04414167
:1007F00036080402010201057F4141417F053E5553
:10080000555541053844443844057C2A2A3E140590
:100810007E0202060605027E027E020563554941FC
:1008200063053844443C0405407E201E2005060232
:100830007E0202086313086463006060052A2A2AA6
:100840002A2A03514A4403444A51050000FF010388
:1008500003E080FF05361236243603020502021833
:1008600018021010053040FF0101041F01011E0095
:100870000000000901017F017F020C027F000000DF
:100880000000000100017D0418247E2404447E45FC
:100890004105221C141C2205012A7C2A010177042F
:1008A0004E55553903020002077E81BDA5A5817E04
:1008B0000326292F0508142A1422040808081803FF
:1008C000080808077E81BD95A9817E050101010107
:1008D000010302050203242E240319151203151522
:1008E0000A02020104F82040780506097F017F0210
:1008F0001818040080A0C003121F10032629260523
:1009000022142A140808402F1008041E117C0840E5
:100910002F10080462554C0915553F1008041E118C
:100920007C053048484D4005781516147805781434
:10093000161578057A1514157A05781615167905A1
:100940007815141578057814151478077E09097F31
:10095000494941059EA1612121057C545546440524
:100960007C54564544057E55544546057C555445B2
:100970004403457E4403447E4503467D4603457C4F
:100980004505087F49413E057C0A11227D05384412
:10099000454638053844464538053A4544453A0504
:1009A000384645463905384544453805221408146B
:1009B00022057C625A463E053C4041423C053C4093
:1009C00042413C053C4241423C053C4140413C05E2
:1009D00002047A0502043F12120C057E49494E308A
:1009E000043845467C043844467D043846457E0438
:1009F0003A45467D043845447D04304A4D7A072007
:100A0000545438545458049CA26222043855565801
:100A10000438545659043856555A04385554590216
:100A2000017A027A01030279020302780204304B50
:100A30004B3C047A090A710430494A300430484A70
:100A40003104304A49320432494A31043944443984
:100A50000508082A08080438544C380438414278FC
:100A60000438404279043842417A043A40407A04DA
:100A700018A0A27904FC282810041AA0A07A00006B
:100A80000000240027002A000000000025002800A4
:100A90002B000404040404040404020202020202FF
:100AA0000303030303030102040810204080010232
:100AB00004081020010204081020000000080002B1
:100AC0000100000304070000000000000000003BDC
:100AD000F93A11241FBECFEFD8E0DEBFCDBF11E041
:100AE000A0E0B1E0E6E2FDE702C005900D92A23B76
:100AF000B107D9F723E0A2EBB1E001C01D92AD35FB
:100B0000B207E1F715E0C8E6D5E004C02197FE0181
:100B10000E94443CC736D107C9F70E942E380C9476
:100B2000863E0C940000FC01248135816217730716
:100B300048F480819181009739F0680F791FFB019B
:100B40008081089580E0089580E008950E949305D3
:100B500008950895CF92DF92EF92FF920F931F9323
:100B6000CF93DF938C01DB01D0E0C0E07A0181E01C
:100B7000E81AF108452BA1F0F80180819181FC0170
:100B8000208131816D01FFEFCF1ADF0A6C91C8011E
:100B9000F9010995892B21F02196A701D601E6CF0D
:100BA000CE01DF91CF911F910F91FF90EF90DF90D9
:100BB000CF90089508956FEF7FEF81E090E00E945D
:100BC000E2050895019709F008956F3F7F4FE1F71F
:100BD000ECEBF2E01382128288EE93E0A0E0B0E04A
:100BE00084839583A683B78380E391E09183808398
:100BF00085EC90E09587848784EC90E097878687E2
:100C000080EC90E0918B808B81EC90E0938B828BD9
:100C100082EC90E0958B848B86EC90E0978B868BB2
:100C2000118E128E138E148ECFCFFC01938D848D76
:100C3000981720F4891B990B019708952FE330E052
:100C4000291B3109820F932F911D0895FC01918D6D
:100C5000828D981761F0A28DAE0FBF2FB11D5D96EA
:100C60008C91928D9F5F9F73928F90E008958FEF8C
:100C70009FEF0895FC01918D828D981731F0828D40
:100C8000E80FF11D858D90E008958FEF9FEF089597
:100C9000FC01218D30E0205C3F4F828DA901481B73
:100CA0005109CA018F73992708958CEB92E00E9435
:100CB000480621E0892B09F420E0822F0895CF9285
:100CC000DF92EF92FF921F93CF93DF93EC016A01C3
:100CD0007B01122F60E079E08DE390E0A70196019F
:100CE0000E94133C215031094109510956954795FD
:100CF00037952795E889F98982E08083C11481EED0
:100D0000D806E104F10421F0211580E1380798F0BC
:100D1000E889F989108260E874E88EE190E0A70123
:100D200096010E94133C2150310941095109569501
:100D3000479537952795EC85FD853083EE85FF85B2
:100D40002083188EEC89FD891083EA89FB898081D4
:100D500080618083EA89FB89808188608083EA8959
:100D6000FB89808180688083EA89FB8980818F7D0F
:100D70008083DF91CF911F91FF90EF90DF90CF9014
:100D80000895FC01A48DA80FB92FB11DA35ABF4F20
:100D90002C91848D90E001968F739078848FA68932
:100DA000B7892C93A089B1898C91837080648C93CE
:100DB000938D848D981308950288F389E02D8081A6
:100DC0008F7D8083F8CF0F931F93CF93DF93EC0138
:100DD00081E0888F9B8D8C8D9817B1F0062F8B8DBD
:100DE00090E001968F739078182F8C8D81131EC020
:100DF0000FB607FCFACFE889F989808185FFF5CF26
:100E0000CE010E94C106F1CFE889F989808185FF72
:100E1000E5CF9FB7F894EE89FF896083E889F98967
:100E200080818370806480839FBF10C0EB8DEC0F46
:100E3000FD2FF11DE35AFF4F00839FB7F8941B8FDE
:100E4000EA89FB898081806280839FBF81E090E096
:100E5000DF91CF911F910F910895CF93DF93EC0114
:100E6000888D811104C00DC00FB607FE0DC0EA8940
:100E7000FB89808185FDF8CFA889B9898C9186FF8F
:100E8000F3CFDF91CF910895808185FFF0CFE8897E
:100E9000F989808185FFEBCFCE010E94C106E7CFA3
:100EA0008330B1F060F08730E9F0883009F18430A8
:100EB00021F5E0E8F0E080818F7D80830895813026
:100EC00069F0823021F484B58F7D84BD0895089542
:100ED000E0E8F0E080818F778083089584B58F7794
:100EE00084BD0895E0EBF0E080818F7780830895E2
:100EF000E0EBF0E080818F7D808308951F93CF9396
:100F0000DF93282F30E0F901E654F54F8491F90181
:100F1000EA55F54F1491F901EE56F54FC491CC23E3
:100F2000A9F0D62F811116C0EC2FF0E0EE0FFF1FB5
:100F3000E857F54FA591B4918FB7F894D1110DC032
:100F40009C91E12FE095E923EC938FBFDF91CF9146
:100F50001F9108950E945007E7CFEC91E12BEC938D
:100F6000F4CFFF920F931F93CF93DF93F82E162F9A
:100F7000042FD22FC0E011C06D2F661F6627661F99
:100F80008F2D0E947E07DD0F61E0812F0E947E077A
:100F900060E0812F0E947E07CF5FC83048F40111C6
:100FA000EBCF6D2F61708F2D0E947E07D695ECCF11
:100FB000DF91CF911F910F91FF900895CF93DF9311
:100FC00090E0FC01EA55F54F24918E56954FFC01B7
:100FD0008491882319F190E0880F991FFC01E25851
:100FE000F54FA591B491FC01E857F54FC591D49107
:100FF000662349F06230A9F08FB7F894EC91E22BA8
:10100000EC938FBF0BC09FB7F8948C91E22FE095C3
:101010008E238C938881E823E8839FBFDF91CF9153
:1010200008959FB7F8943C91822F809583238C93E9
:10103000E881E22BE8839FBFF1CF789484B582608A
:1010400084BD84B5816084BD85B5826085BD85B56C
:10105000816085BDEEE6F0E0808181608083E1E81B
:10106000F0E0108280818260808380818160808353
:10107000E0E8F0E0808181608083E1EBF0E0808156
:1010800084608083E0EBF0E0808181608083EAE728
:10109000F0E08081846080838081826080838081B1
:1010A000816080838081806880831092C100089570
:1010B0002FB7F8946091B8027091B9028091BA028A
:1010C0009091BB022FBF08950F931F93CF93DF938F
:1010D000EC010E945808688779878A879B87E88196
:1010E000F9810284F385E02DCE0109959923ACF4B2
:1010F0000E945808088519852A853B85601B710B5D
:10110000820B930B0C811D812E813F81601771072B
:101110008207930720F38FEF9FEFDF91CF911F910D
:101120000F91089585EC8093BC0010928D02089574
:1011300085ED8093BC008091BC0084FDFCCF1092B3
:101140008D020895811104C085E88093BC00089544
:1011500085EC8093BC000895AC0120916902260FB4
:101160003327331F21323105F4F480918D0284300E
:10117000E1F490E00FC0E0916902292F30E0E20F26
:10118000F32FF11D240F351FD9012C91E75BFD4F83
:1011900020839F5F961778F380916902680F6093B0
:1011A000690280E0089581E0089582E008956FEF7C
:1011B0007FEF81E090E00E941A09089508958FEF73
:1011C0009FEF08958FEF9FEF089580913C0290E08C
:1011D0009195819591090895CF93DF93CB01C42F09
:1011E000D52F642F0E94AC088C2F9D2FDF91CF91BB
:1011F0000895CF93DF931F92CDB7DEB7698361E087
:10120000CE0101960E94AC0881E090E00F90DF9142
:10121000CF910895FC011382128288EE93E0A0E042
:10122000B0E084839583A683B7838EE191E09183B8
:1012300080830895019709F008956F3F7F4FE1F78C
:101240008DE392E00E940A09F7CF9FB7F89480914E
:101250003902882319F08150809339028091390234
:10126000811105C08CB58F7B8CBD109238029FBF59
:101270000895CF93CFB7F89480913902811123C09C
:10128000ECE9FAE08491E0EBFAE09491E82FF0E0E9
:10129000EE0FFF1FE258F54FA591B491EC91E923B1
:1012A000D1F061E08AE00E94DE078CB580618CBDE0
:1012B0008CB580648CBD61E08DE00E94DE0761E04A
:1012C0008BE00E94DE07809139028F5F80933902A4
:1012D000CFBFCF91089561E08AE00E947E07E1CF01
:1012E000DC01AB015D966D917C915E9790E080E0B2
:1012F00059962D913C915A9742175307E0F05B960F
:10130000ED91FC915C97E417F507C8F024173507B9
:10131000C8F45496ED91FC915597E60FF71FE491B0
:101320006E0F711D811D911D6F5F7F4F8F4F9F4FFE
:101330002F5F3F4FEBCF6FEF7FEFCB0108956FEF44
:101340007FEFCB010895CF93DF93DC015D964D9144
:101350005C915E9770E060E05496CD91DC9155977A
:101360002097F9F059962D913C915A9780E00AC048
:101370004E0F511D611D711D4F5F5F4F6F4F7F4FAE
:101380002F5F3F4F5B96ED91FC915C97E217F3075F
:1013900048F0FE01E40FF51FE4918E1748F78E2FF9
:1013A000E7CF80E0DF91CF910895FC01168A88E0B5
:1013B000878B108E128E118E8FEF90E0948F838F1B
:1013C000168E158E0895CF93DF93EC010E94D509F8
:1013D0008C899D89009741F0FC012491263439F0D5
:1013E000CE010E94A309888FDF91CF910895319695
:1013F000E491E13021F1E23009F034C0FC01329691
:10140000249130E0322F22273196E4912E0F311DA6
:101410003A8F298FFC013496249130E0322F222715
:101420003196E4912E0F311D3C8F2B8FFC013696A7
:10143000E491EF8B87E090E09E8F8D8FD1CFFC0100
:101440003296E491F0E0FA8FE98FFC013396E49153
:10145000F0E0FC8FEB8FFC013496E491EF8B85E09C
:1014600090E0EACF82E090E0E7CFFC012489358963
:101470002617370741F06115710539F0FC01758BAE
:10148000648B0E94E30981E0089564E575E0F6CF7E
:101490000F931F93CF93DF93DC0113968C911397D7
:1014A0008823C9F087E090E0841B910951E001C0D6
:1014B000550F8A95EAF719968C9119978150990BD7
:1014C0006817190611F00CF040C0483008F043C00E
:1014D00090E080E00BC051E0042E01C0550F0A944B
:1014E000EAF7E9CF292F30E01DC09F5F983070F5F3
:1014F0001A96ED91FC911B97C62FD0E09E01220F0A
:10150000331F220F331F220F331F2C0F3D1FE20FFB
:10151000F31F14962C911497222321F327E030E037
:10152000291B3109E20FF31F20812523F1F201E08D
:1015300010E020E030E0092E04C0000F111F221F30
:10154000331F0A94D2F7802BD0CF80E0DF91CF9168
:101550001F910F91089580E0F9CF629570E09B0193
:1015600035952795359527952373660F771F660F59
:10157000771F6C7C262B30E0C90195958795857582
:10158000220F331F2A7A822B0895DC0119962C91A1
:1015900019972150330B6217130611F00CF048C055
:1015A000483008F047C013962C911397222309F175
:1015B0001A96ED91FC911B9770E09B01220F331F4F
:1015C000220F331F220F331F620F731FE60FF71F07
:1015D00014962C91222351F067E070E0641B71098E
:1015E000E60FF71F60810E94AD0A0895642F70E036
:1015F000F7CF1A96ED91FC911B9770E09B01220F9B
:10160000331F220F331F220F331F620F731FE60F8A
:10161000F71F14968C91882341F067E070E0641BFB
:101620007109E60FF71F80810895642F70E0F9CFEC
:1016300080E0089580E00895FC012281211103C01B
:101640000E94480A08950E94C50A0895FC0122815B
:10165000211103C00E94C50A08950E94480A0895F6
:101660000F931F93CF93DF93EC01888581111EC0E8
:1016700060E08F810E947E078885882379F130E0C1
:1016800020E0898590E0880F991F28173907E0F539
:10169000EC85FD85E20FF31F80818EBD00000DB447
:1016A00007FEFDCF8EB52F5F3F4FEBCF8091380205
:1016B000882341F09FB7F89480913802813039F047
:1016C0009093370280E58CBD81E08DBDD1CF8DB385
:1016D000809337028DB38DBB9FBFF4CF10E000E045
:1016E000898590E0880F991F0817190768F4EC8521
:1016F000FD85E00FF11F208141E06E818D810E9408
:10170000B1070F5F1F4FECCF61E08F810E947E0712
:101710008885882369F080913802882349F09FB733
:10172000F89480913802813041F0809137028FBF68
:10173000DF91CF911F910F910895809137028DBB5A
:101740009FBFF6CFFC0142305105D9F148F5411554
:10175000510591F14130510511F52830310514F052
:1017600027E030E03BE08485958570E0418541507D
:10177000550B461B570B440F551F480F591FDA01D5
:101780003C934485558581858150990B861B970B29
:10179000880F991F840F951FFC01218308950895D8
:1017A00043305105A9F04430510529F4232BD1F4DD
:1017B00020E039E0D8CF0895232B89F421E03CE0E4
:1017C000D2CF2031310514F02FE030E03AE0CBCF1A
:1017D00081E0232B09F480E0282F3FE0C4CF20E0F4
:1017E0003CE0C1CF2FEF39E0BECFFC0171836083B5
:1017F0006130710581F050F06230710589F063301D
:10180000710599F0138214821282089581E0828317
:10181000838314820895128281E083831482089561
:1018200081E0828383838483089581E082831382AD
:1018300014820895EF920F93FC014583268307835A
:101840001086E18681E0828BCF010E94F50B0F911B
:10185000EF900895FC01868D982F927081FD0FC046
:10186000828D882329F02689378925303105B9F002
:10187000811105C0208D318D2530310581F09923EE
:10188000E1F0828D882329F02689378925303105BA
:10189000A1F0811104C0808D918D059771F084A510
:1018A00095A542A553A521E08417950709F020E0EE
:1018B00026A7019795A784A70895A4A5B5A5CD014E
:1018C000019695A784A711969C9181E0911180E0E3
:1018D00086A7089550E05417F0F4FB01E50FF11DC1
:1018E000208130E0C901959587958575220F331FBA
:1018F0002A7A822B90E09C0135952795359527957E
:101900002373880F991F880F991F8C7C822B8295D7
:1019100080835F5FE0CF0895CF93DF9380E0942FC3
:101920009695891798F4282F30E0DB01A20FB31F9A
:101930009C91C42FC150DD0BFE01E21BF30BE60F9F
:10194000F71F20812C9390838F5FE9CFDF91CF9198
:101950000895FC01848995898230910591F027854D
:10196000308934A323A337A326A38230910561F0E5
:101970002189328931A720A7029749F08FEF85A3EB
:10198000089521893289EDCF27853089F3CF81E011
:10199000F6CFFC011282138214821582168286E031
:1019A00090E094878387158E148E168E10AA17A642
:1019B00011AA13AA12AA81E084AB11AE10AE13AE25
:1019C00012AE15AE14AE0895AF92BF92CF92DF92D1
:1019D000EF92FF920F931F93FC0186A1681758F4B2
:1019E000A3A1B4A182E4689FA00DB11D11249B9610
:1019F0005C934E939A9786A1681758F4A3A1B4A15B
:101A000082E4689FA00DB11D112455963C932E933E
:101A1000549786A1681758F4A3A1B4A182E4689FE3
:101A2000A00DB11D112418961C930E93179786A133
:101A3000681758F4A3A1B4A182E4689FA00DB11D5A
:101A400011241A96FC92EE92199786A1681778F4E1
:101A5000A3A1B4A182E4689FA00DB11D11245796E3
:101A6000DC92CE9256975996BC92AE92589786A128
:101A7000681750F403A0F4A1E02D82E4689FE00D04
:101A8000F11D1124148613861F910F91FF90EF9082
:101A9000DF90CF90BF90AF9008952417B8F0DC018D
:101AA00095963C919597231798F496963C91969726
:101AB000631780F49396ED91FC91B2E46B9FE00D77
:101AC000F11D112441A322A381E0089580E008952F
:101AD00080E0089580E00895EF920F931F93CF93D5
:101AE000DF93EC011B821A8280E191E09983888365
:101AF000CE0104960E941A0CEDA2DF91CF911F91A6
:101B00000F91EF900895CF93DF9300D0CDB7DEB75C
:101B100069831A82DC01ED91FC910084F185E02D4E
:101B2000BE016F5F7F4F099581E090E00F900F90AD
:101B3000DF91CF910895089590E080E008956FEFD0
:101B40007FEF81E090E00E947012089588231CF0DE
:101B50001092B60108959091B6018093B601923C1F
:101B600069F0933C21F0923821F080E00895806C78
:101B700008958C3A11F080E0089580E80895CF929E
:101B8000DF92EF92FF920F931F93CF93DF938B011E
:101B90007A01FB01448155814115510581F1FC0118
:101BA0002481358121153105C9F124173507D8F174
:101BB000E216F30620F07901F1E0EF1AF108FC01DA
:101BC000C081D181CE01CC24CA94DD24DA9401C035
:101BD00001969E012E0D3F1D28173907A0F0F80130
:101BE000608171810E946C3E009769F09C012C1B02
:101BF0003D0BE216F30660F3C22ED32EE9CFCC24C0
:101C0000CA94DD24DA948C2D9D2DDF91CF911F9104
:101C10000F91FF90EF90DF90CF900895CC24CA945D
:101C2000DD24DA94F0CFCC24CA94DD24DA94EBCF0F
:101C3000DC0114962D913C91DB011496ED91FC9101
:101C40002E1B3F0B24173507C0F0DC012D913C9172
:101C500021153105A1F0DB016D917C9161157105B4
:101C600081F0CA01AF01820F931F0E945E3E21E006
:101C7000892B09F020E0822F089580E0089580E00C
:101C8000089580E00895FC0144815581FB01248181
:101C900035814217530728F050E040E00E94180EAB
:101CA000089580E00895DC0114962D913C911597DC
:101CB000232B69F46115710541F0FB0180818823B4
:101CC00011F080E0089581E0089581E008956115A4
:101CD000710559F0FC01808191810E944E3E21E006
:101CE000892B09F020E0822F0895ED91FC919081DD
:101CF00081E09923C9F380E00895CF93DF93DB015E
:101D0000EC01E881F981309761F06D917C91119738
:101D10006115710531F0CF010E944E3EDF91CF91E8
:101D20000895CD91DC911197209729F014962D916B
:101D30003C91232B59F4309779F0DC0114968D9166
:101D40009C91892B61F0808190E0E8CF888190E0C0
:101D5000919581959109E2CF90E080E0DFCF90E00E
:101D600080E0DCCFFC0144815581FB012481358179
:101D70004217530711F080E008950E947D0E892BD1
:101D800011F080E0089581E008950F931F93CF93A1
:101D9000DF938C01EB01FC0180819181892BB1F0F3
:101DA00088819981892B51F189EA95E0A0E0892BFE
:101DB00049F1F801228133818C819D8128173907EF
:101DC00020F5F801808191810E94E63C888199810B
:101DD000F801918380838A819B81938382838C81A4
:101DE0009D8195838483198218821B821A821D82A9
:101DF0001C82DF91CF911F910F91089580E090E0B8
:101E0000DC01D5CFA0FFDDCFD4CF6881798180817F
:101E100091810E94573E8C819D81F8019583848336
:101E20001D821C82E6CFCF93DF93EC0186179707C4
:101E300011F00E94C50ECE01DF91CF910895CF938E
:101E4000DF93EC0188819981009711F00E94E63CB4
:101E5000198218821D821C821B821A82DF91CF9107
:101E60000895FC0180819181009711F00E94E63C69
:101E700008950E94E63C08950E94E63C08950F9361
:101E80001F93CF93DF938C01FC0187A590A9009746
:101E900041F0FC01D481C5810E943C0F8D2F9C2F05
:101EA000F6CFF80182A993A9009711F00E94390F8B
:101EB000DF91CF911F910F910895CF93DF93EC01A4
:101EC000888581110BC08A859B850E94E63C8C85A4
:101ED0009D850E94E63CDF91CF9108950E942509DF
:101EE000F2CF0F931F93CF93DF938C0180E191E0AA
:101EF000F80191838083C3A1D4A12097D9F0FE017A
:101F000032972081318142E4429FC001439F900D6E
:101F10001124C80FD91FF80183A194A18C179D0724
:101F200031F0C254D109CE010E943F0FF4CF029785
:101F30000E94390FC80104960E945D0FDF91CF9176
:101F40001F910F9108950F931F93CF93DF93EC018F
:101F50008B016F5F7F4F888199810E946F3D009751
:101F600051F0998388831B830A8381E0DF91CF91AD
:101F70001F910F91089580E0F9CF4F925F926F9279
:101F80007F928F929F92AF92BF92CF92DF92EF9209
:101F9000FF920F931F93CF93DF93FC0164807580B2
:101FA0006114710409F46FC0FB0144805580411431
:101FB000510409F468C08A017B01EC01FA01C48074
:101FC000D580C418D508C60188809980C114D10471
:101FD000B9F4F70160817181C4010E946C3E4C012B
:101FE000009709F450C0F8014481558160817181E6
:101FF0000E942C3EF80184819581880E991EE9CFBC
:10200000992384F05301F70160817181C4010E941A
:102010006C3E009709F448C04C01840C951CAC0C34
:10202000BD1CF1CF2401F70160817181C4010E94C0
:102030006C3E3C01009719F15C01A818B908A50194
:10204000B401C2010E942C3E4A0C5B1CF801448181
:10205000558160817181C2010E942C3EF801A480EB
:10206000B5804A0C5B1CF70184809580860C971C18
:102070008C819D818C0D9D1D9D838C83D4CFB4015B
:10208000C2010E94573EDF91CF911F910F91FF90A7
:10209000EF90DF90CF90BF90AF909F908F907F9008
:1020A0006F905F904F9008956A147B0461F38A816A
:1020B0009B818A159B05E8F14C815D814150510956
:1020C00055230CF3B701CE010E94BF0D5C0199238B
:1020D000D4F228813981F701848195818A0D9B1D75
:1020E000820F931F4C815D81BC01621B730B461BE9
:1020F000570BBC018C0D9D1D0E94353E8C819D812E
:102100008C0D9D1D9D838C8328813981820F931FA7
:10211000FC011082F80144815581608171818881C0
:1021200099818A0D9B1D0E942C3EA50141505109A9
:10213000C7CFB501CE010E94A30F8111BDCFA3CFA0
:10214000CF93DF93EC0128813981232B29F02A8159
:102150003B812617370770F4CE010E94A30F882316
:1021600051F08C819D81892B49F4E881F98110829D
:1021700081E001C081E0DF91CF91089581E0FBCF44
:10218000EF92FF920F931F93CF93DF93FC01C481D3
:10219000D581C40FD51F6115710501F1452B41F49F
:1021A00081E0DF91CF911F910F91FF90EF90089503
:1021B0007B018C01BE010E94A010882391F3F801DD
:1021C0002081318184819581B701820F931F0E9404
:1021D000573EF801D583C48381E0E3CF80E0E1CFAF
:1021E000CF93DF9300D0CDB7DEB769831A8241E089
:1021F00050E0BE016F5F7F4F0E94C0100F900F90A4
:10220000DF91CF910895EF92FF920F931F93CF9399
:10221000DF93EC017B018A01BA010E94A0108823A0
:1022200079F01D830C83B701888199810E94573E04
:10223000CE01DF91CF911F910F91FF90EF90089504
:10224000CE010E941F0FF4CFCF93DF93EC016115F5
:10225000710571F0FB0101900020E9F73197AF01A2
:10226000461B570B0E940311CE01DF91CF910895B9
:102270000E941F0FF9CFCF93DF93EC01FB0186176C
:10228000970749F0608171816115710541F04481C2
:1022900055810E940311CE01DF91CF9108950E94D4
:1022A0001F0FF9CFFC011182108213821282158256
:1022B00014820E943B110895FC0111821082138246
:1022C0001282158214826115710551F0FB01019093
:1022D0000020E9F73197AF01461B570B0E9403110D
:1022E0000895AF92BF92CF92DF92EF92FF920F9339
:1022F0001F93CF93DF935C016B018A01E9012417DF
:10230000350720F08D2FEA01022F182F64E671E0C7
:10231000C5010E945C11D6011496ED90FC90CE157B
:10232000DF05D0F4E016F10608F07801D601ED9152
:10233000FC911197EE0DFF1D108110826D917C9123
:102340006C0F7D1FC5010E942411F60180819181CF
:10235000E80EF91ED7011C93C501DF91CF911F91A3
:102360000F91FF90EF90DF90CF90BF90AF900895C6
:102370003F924F925F926F927F928F929F92AF9215
:10238000BF92CF92DF92EF92FF920F931F93CF9362
:10239000DF934C016B01342E5901412C512C6624E2
:1023A0006A94762CFB010481158101501109D0E05B
:1023B000C0E0F12CE12C0DC0FFEFEF1AFF0A230162
:1023C0008FEF481A580AC017D10799F0CE013C0187
:1023D00021960C171D0784F0AE14BF046CF0BE01EB
:1023E000C6010E94A605831539F3C017D10781F7EE
:1023F000E3CFCE010196EBCF9301A201B601C40158
:102400000E947111C401DF91CF911F910F91FF9034
:10241000EF90DF90CF90BF90AF909F908F907F9084
:102420006F905F904F903F900895FF920F931F938E
:10243000CF93DF93EC018B01F42E64E671E00E94F0
:102440005C11C8010E94640899237CF02F2D0F2C89
:10245000000C330B2817390741F0682FCE010E947A
:10246000F010C8010E946408EFCFCE01DF91CF9138
:102470001F910F91FF900895CF93DF9300D000D06C
:1024800000D0CDB7DEB78CEB92E00E944806892BD6
:10249000B1F04BE36CEB72E0CE0101960E94151295
:1024A000BE016F5F7F4F87EE91E00E94130FCE0158
:1024B00001960E94310F81E08093B501E4CF26960A
:1024C0000FB6F894DEBF0FBECDBFDF91CF91089558
:1024D0000E945506811101C008950E943C12FCCF54
:1024E000CF92DF92EF920F93CF93DF93EC016B01CA
:1024F000019769F0CD2B21F4CD20C09409F465C07B
:10250000DF91CF910F91EF90DF90CF9008956F3FC3
:102510007F4F81F76894EE24E4F80CE028E04BE06C
:1025200063E070E085E092E00E946C0D64E671E08B
:102530008FEF91E00E945C1164E671E089EF91E019
:102540000E945C116EE371E083EF91E00E945C11E8
:102550006DE471E08DEE91E00E945C1164E671E043
:1025600087EE91E00E945C1164E671E081EE91E0FB
:102570000E945C1164E671E08BED91E00E945C11B9
:1025800064E671E085ED91E00E945C1164E671E023
:102590008FEC91E00E945C1164E671E089EC91E0BF
:1025A0000E945C1164E671E083EC91E00E945C1192
:1025B00064E671E08DEB91E00E945C1164E671E0ED
:1025C00087EB91E00E945C1195CF87EB91E00E9430
:1025D000310F8DEB91E00E94310F83EC91E00E946E
:1025E000310F89EC91E00E94310F8FEC91E00E9455
:1025F000310F85ED91E00E94310F8BED91E00E944B
:10260000310F81EE91E00E94310F87EE91E00E9440
:10261000310F8DEE91E00E94310F83EF91E00E9427
:10262000310F89EF91E00E94310F8FEF91E00E940E
:10263000310F85E092E00E94710F62CFEF92FF921E
:102640000F931F93CF93DF937C018B0164E671E0BE
:102650000E945C11D0E0C0E001C02196F8018481A5
:102660009581C817D90768F4BE01C8010E94A60564
:102670000E94A60D882389F3682FC7010E94F010DD
:10268000ECCFC701DF91CF911F910F91FF90EF9099
:1026900008951F93CF93DF93CDB7DEB7E6970FB6BC
:1026A000F894DEBF0FBECDBF809100019091010173
:1026B0008330910589F19CF481309105E9F002970E
:1026C00009F0D7C069EF71E089EC91E00E943B11FD
:1026D00083E090E0909301018093000113C0843067
:1026E000910539F1059709F0C4C06DEE71E083ECF6
:1026F00091E00E943B1106C06BE571E083EC91E034
:102700000E942411E6960FB6F894DEBF0FBECDBF2F
:10271000DF91CF911F91089563EF71E083EC91E019
:102720000E943B1184E090E09093010180930001AE
:10273000E9CF65E671E0CE01C1960E945C11BE0151
:102740006F5C7F4F8FEF91E00E94430E182FCE01F8
:10275000C1960E94310F11112FC060E771E0CE01C8
:102760004F960E945C11BE01615E7F4F8FEF91E03A
:102770000E94430E182FCE014F960E94310F111167
:102780003AC06EE671E0CE010D960E945C11BE016A
:10279000635F7F4F8FEF91E00E94430E182FCE01B1
:1027A0000D960E94310F111145C06FEF71E083EC5F
:1027B00091E00E943B11A6CF68E671E0CE018B96B6
:1027C0000E945C1165E671E0CE0185960E945C1165
:1027D000AE01455D5F4FBE016B5D7F4F8FEF91E0B6
:1027E0000E94BD0FCE0185960E94310FCE018B96BF
:1027F0000E94310FB2CF6BE671E0CE0149960E9484
:102800005C1160E771E0CE0143960E945C11AE015D
:10281000475E5F4FBE016D5E7F4F8FEF91E00E947C
:10282000BD0FCE0143960E94310FCE0149960E9402
:10283000310FA7CF63E771E0CE0107960E945C11CC
:1028400067E771E0CE0101960E945C11AE01495F1D
:102850005F4FBE016F5F7F4F8FEF91E00E94BD0F12
:10286000CE0101960E94310FCE0107960E94310FD2
:102870009CCF6BE771E083EC91E00E94241142CF82
:10288000CF92DF92EF92FF926B017C01C114D104D1
:10289000E104F10439F4C701B601FF90EF90DF9035
:1028A000CF9008950E94523BA70196010E94AA3B37
:1028B0006B017C01F0CF0E944A3C08951F93CF9397
:1028C000DF93EC01A881B98158961C918CA9180F4F
:1028D00089A9811768F48AA99BA9009711F00E9421
:1028E000390F19AB812F90E00E945B149BAB8AAB30
:1028F000DF91CF911F910895FC01718360830E9445
:102900005E140895CF92DF92EF92FF920F931F9380
:10291000CF93DF937C016B01EA01CA0101960E940B
:102920004A3C8C010097F9F0AE01B6010E942C3EA2
:10293000F801EC0FFD1F1082D701ED91FC9100848E
:10294000F185E02DB801C7010995C8010E94E63C58
:102950008C2F9D2FDF91CF911F910F91FF90EF90C2
:10296000DF90CF90089580E090E0F4CF8F929F9217
:10297000AF92BF92FF920F931F93CF93DF938C017F
:10298000F42EE901209709F438C00E9470096F3FC6
:102990002FEF72078207920739F1D80154962D91D3
:1029A0003C91F901E60FF71F2491F21608F0F4901C
:1029B0004B015C01BFEF8B1A9B0AAB0ABB0A90E08C
:1029C0009F15E0F4AE014F5F5F4F292F30E0280DD7
:1029D000391DD8015496ED91FC91E20FF31FE4915B
:1029E000E8839F5FEA01ECCF4F2D50E070E060E09C
:1029F000CE010E94473EF12C01C0F12C8F2DDF91BA
:102A0000CF911F910F91FF90BF90AF909F908F90AB
:102A10000895DF92EF92FF920F931F93CF93DF936E
:102A20008C01EB01D42E7901DC019F96ED91FC9194
:102A30003097D1F0808191818C179D0721F004801F
:102A4000F581E02DF5CF0280F381E02DC081DC1609
:102A500048F0BF016F5F7F4F4C2F50E0C7010E94CD
:102A60002C3E12C0CD2DF5CFF80160AD71AD808147
:102A700091810E94350A97014D2DBE01D8018D919B
:102A80009C910E94B614C82F8C2FDF91CF911F917B
:102A90000F91FF90EF90DF9008951F93CF93DF93F6
:102AA000EC01142F2AA93BA949A90E940915112359
:102AB00091F0882381F090E001C09F5F2CA99217CC
:102AC00050F429A98217C8F7EAA9FBA9E80FF11D5C
:102AD00010828F5FF2CFDF91CF911F9108950F93F6
:102AE0001F93CF93DF93DB011C92FC0126A52223C9
:102AF00031F080E0DF91CF911F910F91089504A4F0
:102B0000F5A5E02D3181208141E0311101C040E087
:102B10008B01EC01622F70E00E944D15D8018C935F
:102B20009E8D292F227091FD0FC09A8D992329F037
:102B30004E895F8945305105C1F0911105C0488D1E
:102B4000598D4530510589F02223A9F09A8D99239A
:102B500029F02E893F892530310569F0911105C092
:102B6000288D398D2530310531F06AA97BA9482F90
:102B7000CE010E948C0C8E8D80FD05C0CE010E947E
:102B80002A0C81E0B7CF6AA97BA9F8014081CE0168
:102B90000E946A0CF3CF0F931F93CF93DF93EC0146
:102BA000FB011082AAA5BBA5BDA7ACA7109709F48D
:102BB00074C08C91882309F470C01EA68E8D982F46
:102BC000927081FD0FC08A8D882329F02E893F895C
:102BD00025303105B9F0811105C0288D398D25309A
:102BE000310581F09923A1F08A8D882329F02E895F
:102BF0003F892530310561F0811104C0888D998DA0
:102C0000059731F00D900020E9F71297BDA7ACA70A
:102C1000ACA5BDA511969C9111978C9141E09111A5
:102C200001C040E08B01682F70E0CE010E944D157D
:102C3000F80180839E8D292F227091FD0FC09A8DFF
:102C4000992329F04E895F8945305105C1F09111D2
:102C500005C0488D598D4530510589F02223A9F0D2
:102C60009A8D992329F02E893F892530310569F005
:102C7000911105C0288D398D2530310531F06AA9B3
:102C80007BA9482FCE010E948C0C8E8D80FD0DC03B
:102C9000CE010E942A0C81E003C081E08EA780E073
:102CA000DF91CF911F910F9108956AA97BA9F80137
:102CB0004081CE010E946A0CEBCFCF92DF92EF925F
:102CC000FF920F931F93CF93DF938C01EB01F12CB5
:102CD000E12C01C0E60168816623C9F06E018FEF27
:102CE000C81AD80AF80122A933A970E041A9C8017D
:102CF0000E94091590E0E80EF91E892B59F389818D
:102D0000882341F3F80184A9E80EF11CE3CFC70141
:102D1000DF91CF911F910F91FF90EF90DF90CF90B7
:102D20000895EF92FF920F931F93CF93DF938C013F
:102D3000FC01C2A1D0E0CC0FDD1FCC0FDD1FCC0FFA
:102D4000DD1F279681A1F8E08F9FC019D1091124BA
:102D50002196C8010E945D16F8019687858724890F
:102D600035892130310509F450C058F02230310541
:102D700059F181E0DF91CF911F910F91FF90EF907A
:102D8000089522A130E0220F331F220F331F220F9C
:102D9000331F295F3F4F308B2787C817D90760F44F
:102DA00081A190E0880F991F880F991F880F991FA4
:102DB000928B818B80E0DECF281B390B2F5F3F4F3A
:102DC000328B218B81E0D6CF21A130E0220F331F3F
:102DD000220F331F220F331F328B218BC817D907C5
:102DE00068F482A190E0880F991F880F991F880FBF
:102DF000991F0796908B878780E0BCCF820F931F27
:102E00000197908B878781E0B5CFC817D907B8F0B5
:102E100021A130E0220F331F220F331F220F331F57
:102E2000C81BD90BD695C795C20FD31FD28BC18BA8
:102E30008C0F9D1F0197908B878781E09BCF82A18C
:102E400090E0880F991F880F991F880F991F079688
:102E5000908B878781A190E0880F991F880F991F19
:102E6000880F991F928B818B80E084CFCF93DF9363
:102E7000FC0162A573A56115710541F0EC0175A710
:102E800064A70E94911691E089278B8BDF91CF91E7
:102E90000895FC01418550E0440F551F70E060E04B
:102EA000848595850E94473E0895AF92BF92CF9248
:102EB000DF92EF92FF920F931F93CF93DF93E62E53
:102EC000F12CDC0119962C912150330B2E153F0566
:102ED0000CF462C0A62E8C01B12C01C0B394B7E0F3
:102EE000BB1508F448C08A2D90E0EC01CC0FDD1F23
:102EF000CC0FDD1FCC0FDD1FC80FD91FCB2CD12C61
:102F0000D8011A96ED91FC91EC0FFD1F208530E061
:102F10000B2C02C0359527950A94E2F720FFDECFEF
:102F2000C8010E944917F8012485358581858150A3
:102F3000990B8E199F09880F991F820F931F21E00B
:102F40002B0DDC012C9382859385C80FD91F248516
:102F5000358581858150990B8E199F09880F991F9E
:102F6000820F931FCC0DDD1D2881FC012183C80138
:102F70000E94300BB3CFD8011A96ED91FC91B12C81
:102F8000B501660F771F660F771F660F771FA60EB6
:102F9000B71EEA0DFB1D1086DF91CF911F910F9197
:102FA000FF90EF90DF90CF90BF90AF9008950F9378
:102FB0001F93CF93DF93EC01062F142F49854150C7
:102FC000550B6417150611F00CF056C0183008F0B8
:102FD0005AC08B81882329F0622FCE010E94AD0A4E
:102FE000282FEA85FB85802F90E0AC01440F551F08
:102FF000440F551F440F551F840F951FE80FF91FED
:103000003C81332329F147E050E0411B5109E40F93
:10301000F51F2083EA85FB85E80FF91F20858C8149
:103020008823C9F047E050E0411B510981E090E05E
:10303000A0E0B0E004C0880F991FAA1FBB1F4A95EB
:10304000D2F7822B80871A89111111C011E015C0A7
:10305000412F50E0DCCF81E090E0A0E0B0E004C080
:10306000880F991FAA1FBB1F1A95D2F7EACF602FAE
:10307000CE010E94551701C010E0812FDF91CF9142
:103080001F910F91089510E0F8CFCF92DF92EF9249
:10309000FF920F931F93CF93DF93FC01822F218523
:1030A0002150330B6217130611F00CF0C7C04830E3
:1030B00008F0CFC090E014C09D0138C001E010E0DE
:1030C00020E030E0042E04C0000F111F221F331F28
:1030D0000A94D2F742C0AC0DBD1D052B0C939F5F27
:1030E000983008F090C0A92FB0E0C82FD0E0092E8A
:1030F00002C0D595C7950A94E2F7C0FF38C0262FC5
:1031000030E0E901CC0FDD1FCC0FDD1FCC0FDD1F40
:10311000C20FD31F228533856E01C20ED31E748168
:10312000772351F227E030E02A1B3B0B2C0D3D1D8D
:10313000E90158812381222309F227E030E0790157
:10314000E41AF10801E010E020E030E004C0000FD4
:10315000111F221F331FEA94D2F7772309F4BBCF44
:1031600027E030E0E901CA1BDB0BDE01B4CF262FDC
:1031700030E0E901CC0FDD1FCC0FDD1FCC0FDD1FD0
:10318000C20FD31F228533856E01C20ED31E7481F8
:10319000772349F127E030E02A1B3B0B2C0D3D1D26
:1031A000E90158812381222301F127E030E07901F0
:1031B000E41AF10801E010E020E030E004C0000F64
:1031C000111F221F331FEA94D2F70095772331F0A5
:1031D00027E030E0E901CA1BDB0BDE01AC0DBD1DB1
:1031E00005230C937CCF9D01D9CF01E010E020E0B6
:1031F00030E0042E04C0000F111F221F331F0A9459
:10320000D2F70095E3CFA285B385262F30E0C90120
:10321000880F991F880F991F880F991F820F931F7E
:10322000A80FB91F8FEF18968C93C289C11102C0E5
:10323000C1E005C0CF010E94551701C0C0E08C2F2E
:10324000DF91CF911F910F91FF90EF90DF90CF9082
:103250000895C0E0F4CFFC013281311103C00E9417
:10326000451808950E94D7170895FC013281311145
:1032700003C00E94D71708950E94451808958F92A1
:103280009F92AF92BF92CF92DF92EF92FF920F93F5
:103290001F93CF93DF93DC011996EC911997E150BE
:1032A000FF0B6E171F0611F00CF064C0483008F0D9
:1032B00070C0283008F06FC01A96CD91DC91A62F0F
:1032C000B0E0FD01EE0FFF1FEE0FFF1FEE0FFF1F1F
:1032D000AE0FBF1FFE01EA0FFB1FEC013C81332341
:1032E00089F1C7E0D0E0C41BD109332371F147E075
:1032F00050E0421B5109CE0FDF1F3881E40FF51F4C
:103300003083EC01EA85FB85EA0FFB1F40853C8199
:103310003323F1F0A7E0B0E0A21BB10901E010E017
:1033200020E030E004C0000F111F221F331FAA95B8
:10333000D2F7042B0087DC015296CC91C11117C043
:10334000C1E019C0C42FD0E0D0CF422F50E0D3CF7E
:10335000C12CD12C7601C3944601570104C0880CBE
:10336000991CAA1CBB1C2A95D2F78401E2CF0E94AB
:10337000551701C0C0E08C2FDF91CF911F910F91A5
:10338000FF90EF90DF90CF90BF90AF909F908F9085
:103390000895C0E0F0CFC0E0EECFCF92DF92EF9281
:1033A000FF92CF93DF93FC0183818823C9F087E0EC
:1033B00090E0841B910991E001C0990F8A95EAF78A
:1033C000A185A150BB0B6A171B0611F00CF08FC032
:1033D000483008F095C0283008F094C030E018C09C
:1033E00091E0042E01C0990F0A94EAF7E9CFC12CAD
:1033F000D12C7601C394022E04C0CC0CDD1CEE1C33
:10340000FF1C0A94D2F7A40FB51FC82ACC923F5FC5
:10341000383008F051C0C285D385A62FB0E0AD0189
:10342000440F551F440F551F440F551F4A0F5B1F74
:103430004C0F5D1FA32FB0E0EA01CA0FDB1F88818C
:10344000782F792399F07381772389F2C7E0D0E050
:10345000C21BD109C12CD12C7601C39404C0CC0C61
:10346000DD1CEE1CFF1CCA95D2F7CDCF73817723EC
:10347000A9F0C7E0D0E0C21BD109C12CD12C760144
:10348000C39404C0CC0CDD1CEE1CFF1CCA95D2F703
:10349000C094A40FB51F8C218C93B9CFC12CD12C13
:1034A0007601C394022E04C0CC0CDD1CEE1CFF1C64
:1034B0000A94D2F7C094EDCFA285B385262F30E0D1
:1034C000C901880F991F880F991F880F991F820FB4
:1034D000931FA80FB91F8FEF18968C93C289C11143
:1034E00002C0C1E005C0CF010E94551701C0C0E075
:1034F0008C2FDF91CF91FF90EF90DF90CF900895C8
:10350000C0E0F6CFC0E0F4CFFC013281311103C03E
:103510000E94CD1908950E943F190895CF92DF921D
:10352000EF92FF920F931F93CF93DF93CDB7DEB748
:1035300028970FB6F894DEBF0FBECDBF48305105B7
:1035400008F04EC2F62E8C01FA01E755F54E0C94A8
:10355000443CB11A0E1B681BCB1B0C1C5F1CB21C1D
:10356000D41CDC0112968C918823B9F180E016C03E
:103570000284F385E02D4F2D50E09A01220F331F76
:10358000220F331F220F331F240F351FE20FF31FAB
:10359000E80FF11D9081990F90838F5F883008F0BC
:1035A000D7C0F8019381992319F30284F385E02DA4
:1035B0004F2D50E09A01220F331F220F331F220F8D
:1035C000331F240F351FE20FF31FE80FF11D208179
:1035D00030E0359527952083E0CF28E0222309F4B9
:1035E000B7C0F801828593856F2D70E0AB01440F61
:1035F000551F440F551F440F551F460F571F840F6B
:10360000951F422F50E0FA013197E80FF91F3081E2
:10361000840F951FDC013C932150E0CFFC01828197
:103620008823C9F180E018C01A96ED91FC914F2DC6
:1036300050E09A01220F331F220F331F220F331F36
:10364000240F351FE20FF31FE80FF11D208130E03A
:103650003595279520838F5F883008F079C0D80191
:1036600013969C9113979923F9F21A96ED91FC9178
:103670004F2D50E09A01220F331F220F331F220FCC
:10368000331F240F351FE20FF31FE80FF11D908148
:10369000990F9083E0CF20E0273008F059C0F8015F
:1036A000828593856F2D70E0AB01440F551F440F49
:1036B000551F440F551F460F571F840F951F422F4C
:1036C00050E0FC01E40FF51F318130832F5FE4CF20
:1036D000FC0183898823B9F040E0C8010E941C0BDB
:1036E0008983D80112968C91882379F020E02730C5
:1036F00048F5EE24E394E20E4E2D6F2DC8010E9492
:10370000841A2E2DF4CF1982ECCF87E08823D4F0D1
:10371000D8011A96ED91FC914F2D50E09A01220F9D
:10372000331F220F331F220F331F240F351FE20FC9
:10373000F31FE80FF11D87FDFA959081990F908393
:103740008150E4CF298147E06F2DC8010E942B19D9
:10375000D8011A96ED91FC916F2D70E0CB01880F86
:10376000991F880F991F880F991F680F791FE60FFF
:10377000F71F8FEF808781E028960FB6F894DEBFA1
:103780000FBECDBFDF91CF911F910F91FF90EF90B2
:10379000DF90CF900895FC0183898823B9F047E03A
:1037A000C8010E941C0B8983D80112968C91882332
:1037B00079F028E0222349F1EE24EA94E20E4E2D1E
:1037C0006F2DC8010E94841A2E2DF4CF1982ECCFE0
:1037D00020E02830D0F4D8011A96ED91FC914F2DBD
:1037E00050E0CA01880F991F880F991F880F991FF1
:1037F000840F951FE80FF91FE20FF11D808190E003
:103800009595879580832F5FE4CF298140E06F2DC8
:10381000C8010E942B199CCFFC018281882309F1E9
:10382000E12CF7E0FE1508F493CFD8011A96CD905D
:10383000DC902F2D30E0C901880F991F880F991F48
:10384000880F991F820F931FC80ED91ECE0CD11C52
:10385000F6016081C8010E94AD0AD6018C93E39401
:10386000E0CF60E0643008F073CFF8018285938583
:103870004F2D50E0FA01EE0FFF1FEE0FFF1FEE0F6E
:10388000FF1F4E0F5F1F840F951FC62ED12CDC012A
:10389000AC0DBD1D7C9127E030E02C193D09820F55
:1038A000931FFC0180818C93D8011A96ED91FC91B5
:1038B000E40FF51FE20FF31F70836F5FD3CFFC019E
:1038C0008281882379F160E0643008F041CFD8012B
:1038D0001A968D919C914F2D50E0FA01EE0FFF1F2B
:1038E000EE0FFF1FEE0FFF1F4E0F5F1F840F951F80
:1038F000C62ED12CDC01AC0DBD1D7C9127E030E043
:103900002C193D09820F931FFC0180818C93D801F3
:103910001A96ED91FC91E40FF51FE20FF31F7083EF
:103920006F5FD2CFE12CB7E0BE1508F411CFF801DC
:10393000C284D3842F2D30E0C901880F991F880FCE
:10394000991F880F991F820F931FC80ED91ECE0C86
:10395000D11CD6016C91C8010E94AD0AF60180838A
:10396000E394E1CFE12CF7E0FE1570F0CE2CD12CE2
:1039700047E04E196F2DC8010E94260BFE01EC0D89
:10398000FD1D8183E394EFCFE12C87E08E1508F4D1
:10399000DFCEFE01EE0DF11D21814E2D6F2DC801F0
:1039A0000E942B19E394F1CF80E0883008F0D0CE4C
:1039B000D8011A96ED91FC914F2D50E09A01220FFB
:1039C000331F220F331F220F331F240F351FE20F27
:1039D000F31FE80FF11D9081909590838F5FE5CFE5
:1039E00080E0CACEEF92FF921F93CF93DF93EC015A
:1039F00010E04AC0AF5F6A2F70E089858150990B53
:103A000086179707F4F19B01A901440F551F440F36
:103A1000551F440F551F420F531FE12EF12C2A85CD
:103A20003B85240F351FF901208530E0012E02C0AF
:103A3000359527950A94E2F720FFDCCF2C853D854C
:103A4000861B970B880F991F820F931F21E0210F70
:103A5000FC0120838A859B85480F591F2C853D8555
:103A600089858150990B861B970B880F991F820FB0
:103A7000931FF701E40FF51F2081FC012183B1E0C2
:103A8000B9CFB11109C01F5F183050F4CE010E94A8
:103A90004917A0E0B0E0AFCFCE010E94300BF3CFCA
:103AA00020E089858150990B2817190609F094F4B4
:103AB000EA85FB85422F50E0CA01880F991F880FC5
:103AC000991F880F991F840F951FE80FF91F108603
:103AD0002F5FE7CFDF91CF911F91FF90EF90089577
:103AE0007F928F929F92AF92BF92CF92DF92EF928E
:103AF000FF920F931F93CF93DF93CDB7DEB7299734
:103B00000FB6F894DEBF0FBECDBF7C01162F042F79
:103B10006901DC015296BC905297461708F44EC1D9
:103B200052961C922830310508F05EC1F901E55625
:103B3000F24E0C94443CA31D191ED01ED01E731EC1
:103B4000D01ED01ED01EFC018389811137C0808811
:103B500091888114910409F440C0642F660F660FA8
:103B6000660F695F462F4770669566956695C70133
:103B70000E94260B482FB601802FF4010995712C65
:103B8000812E912C802F002E000C990B8815990501
:103B900034F1A601602FC7010E948E1AAA24AA94AC
:103BA000A00E47E06A2DC7010E94260B282F40E097
:103BB000602FC7010E9435190A2DE2CF642F660FCE
:103BC000660F660F695F462F477066956695669526
:103BD000C7010E94260B782ED3CF712CD1CFD701ED
:103BE0001E96ED91FC911F97309741F053968C9162
:103BF000811104C0B601812F0995782EB401660F9A
:103C0000771F660F771F660F771F462F47707695D1
:103C100067957695679576956795272DC7010E94DC
:103C20003519D7015296BC92B110C4C0BB24B394CD
:103C3000C6C0FC018389811127C0808891888114C6
:103C4000910449F140E06F71C7010E94260B482F93
:103C5000B601812FF4010995912C0117F0F0A6010E
:103C6000612FC7010E948E1AAA24A394A10E40E0DE
:103C70006A2DC7010E94260B282F47E0612FC7013C
:103C80000E9435191A2DE9CF40E06F71C7010E94DB
:103C9000260B982EE2CF912CE0CFD7011E96ED9106
:103CA000FC911F97309741F053968C91811104C07D
:103CB000B601802F0995982E602F70E0660F771F50
:103CC000660F771F660F771F695F7F4F462F47701C
:103CD000769567957695679576956795292DC701B1
:103CE0000E9435199ECFA12C42C055954795641767
:103CF00075070CF04BC0F70142855385860F971F5F
:103D0000FC01EE0FFF1FEE0FFF1FEE0FFF1F8E0FC8
:103D10009F1F840F951F0F2EF9E09F2EF02DFC01A1
:103D2000DE01119601900D929A94E1F7261B370B54
:103D3000D901AA0FBB1FAA0FBB1FAA0FBB1F2A0FB7
:103D40003B1FFA01E20FF31F49E0DC0101900D92E5
:103D50004A95E1F7F701A285B385A20FB31F89E069
:103D6000FE01319601900D928A95E1F7A3946A2D98
:103D700070E0202F30E0812F90E0F901E81BF90B73
:103D8000AF010AF0B2CF4F5F5F4FAFCF011708F41A
:103D900048CFA601612FC7010E948E1A1F5FF6CF80
:103DA000011708F43ECFA601612FC7010E948E1AA9
:103DB0001F5FF6CFC7010E94F21C01C0B12C8B2DF2
:103DC00029960FB6F894DEBF0FBECDBFDF91CF911D
:103DD0001F910F91FF90EF90DF90CF90BF90AF9029
:103DE0009F908F907F900895B12CE9CFCF92DF9272
:103DF000EF92FF920F931F93CF93DF93EC01162F57
:103E0000442309F40FC18B859C858230910539F1DB
:103E100058F083309105D9F1049709F4C2C085E0C8
:103E200090E09C878B87C7C1BE016B5C7F4FCE0142
:103E30000E94CB15811105C086E090E09C878B879E
:103E4000BAC11FAA1EAA83E090E09C878B87B3C1EA
:103E50008DA9811111C08B859C85059769F0BE01E4
:103E60006B5C7F4FCE010E946F158111F1CF85E011
:103E700090E09C878B87ECCF8B859C85059709F418
:103E80009AC11FAA1EAA83E090E09C878B878DA908
:103E9000882399F188819981112309F451C030E078
:103EA00020E04AA169A10E94701D888199812B8D13
:103EB000222309F448C0EAA9FBA92EA93FA9A90118
:103EC0004F5F5F4F5FAB4EABE20FF31F208120953A
:103ED000112309F445C069A170E0660F771F660FD2
:103EE000771F660F771F462F4770769567957695F3
:103EF0006795769567950E9435198EA99FA92DA97A
:103F00002817190609F057C18EA58823A1F111239E
:103F1000B9F18F8598892D853E85821B930B29A148
:103F200038E0239F80199109112401969FAB8EAB35
:103F3000181619069CF584E090E09C878B873BC19E
:103F400021E030E0AECFEAA9FBA92EA93FA9A90143
:103F50004F5F5F4F5FAB4EABE20FF31F2081B8CFD7
:103F60006AA170E0660F771F660F771F660F771FD5
:103F7000695F7F4FB8CF82E090E09C878B871BC141
:103F80008AA190E0880F991F880F991F880F991FA9
:103F900007962F853889821B930BC8CF85E090E068
:103FA000CCCF88819981662369F130E020E04AA175
:103FB00069A10E94701D888199812B8D222329F18E
:103FC0002FEF112321F169A170E0660F771F660FB3
:103FD000771F660F771F462F477076956795769502
:103FE0006795769567950E9435198EA99FA90197C7
:103FF0009FAB8EAB892B09F0DEC085E090E09C87FB
:104000008B87D9C021E030E0D2CF20E0DACF6AA19F
:1040100070E0660F771F660F771F660F771F695F67
:104020007F4FD9CF8B859C858430910539F00597DA
:1040300009F0CAC084E090E09C878B8788819981D1
:10404000112309F445C030E020E04AA169A10E9493
:10405000701D888199812B8D2223E9F12FEF112387
:10406000E1F169A170E0660F771F660F771F660F99
:10407000771F462F47707695679576956795769565
:1040800067950E9435198AA190E0C9A0D12C7C01C6
:10409000EC18FD082FEFE21AF20AEE0CFF1CEE0CF2
:1040A000FF1CEE0CFF1C2C8D3D8D2115310521F0E0
:1040B0002E153F0508F47901112309F442C0CC0CF8
:1040C000DD1CCC0CDD1CCC0CDD1C10E000E01BC0AA
:1040D00021E030E0BACF20E0C2CF6AA170E0660FE5
:1040E000771F660F771F660F771F695F7F4FC1CFFE
:1040F00030E020E08217930709F056C03FEFC31A63
:10410000D30A0F5F1F4F8AA190E0880F991F880F75
:10411000991F880F991F07968C159D050CF444C0B4
:104120004C2D47706C2D66956695669588819981B2
:104130000E94260B90E02B8D2223D1F22FEF30E04E
:10414000D9CF880F991F880F991F880F991F9C013D
:10415000295F3F4F690110E000E00AC030E020E035
:104160008217930709F531E0C31AD1080F5F1F4F7B
:1041700089A190E0880F991F880F991F880F991FB8
:10418000C816D9068CF04C2D47706C2D6695669537
:104190006695888199810E94260B90E02B8D2223C1
:1041A000E9F22FEF30E0DCCF0E151F0520F086E09E
:1041B00090E09C878B87DF91CF911F910F91FF90AB
:1041C000EF90DF90CF90089586E090E09C878B87FA
:1041D000F2CFCF93DF93EC01461708F14617E0F0DA
:1041E000EA85FB85A62FB0E09D01220F331F220F29
:1041F000331F220F331F2A0F3B1FE20FF31F88E0EC
:10420000DF011D928A95E9F7EA85FB85E20FF31F2E
:104210008FEF80876F5FE2CF8A89811103C0DF91C2
:10422000CF910895CE010E94F21CF9CF0F931F93F6
:10423000CF93DF93EC01662309F4F9C08B859C854D
:104240008230910509F444C040F0039709F458C046
:1042500085E090E09C878B8790C1BE016B5C7F4FAF
:10426000CE010E94CB15811105C086E090E09C87AD
:104270008B8783C14AA169A1888199810E94E92025
:104280008B8D811115C01FAA1EAA89A190E0880FED
:10429000991F880F991F880F991F9CA38BA38F8547
:1042A000988999A788A783E090E09C878B8765C150
:1042B00027E030E04AA169A1888199810E94701DA0
:1042C000E2CF8DA9811111C08B859C85059769F07E
:1042D000BE016B5C7F4FCE010E946F158111F1CF43
:1042E00085E090E09C878B87ECCF8B859C8505973C
:1042F00009F443C11FAA1EAA83E090E09C878B8724
:104300006BA17CA188A599A568177907F9F0EAA99E
:10431000FBA92EA93FA9E20FF31F208121113BC069
:104320009CA38BA32BA13CA188A599A5281739078D
:1043300009F469C08EA99FA92DA92817190609F0AB
:104340001CC182E090E09C878B8717C1E881F981CE
:104350009B8D9923C1F0AAA9BBA98EA99FA9A80FDB
:10436000B91F2C912095462F4770769567957695C5
:10437000679576956795CF010E94351985E090E0A5
:104380009C878B87FAC0AAA9BBA98EA99FA9A80F51
:10439000B91F2C91E8CF888199812B8D222349F177
:1043A0002FEF462F477076956795769567957695AA
:1043B00067950E9435196BA17CA16F5F7F4F7CA32D
:1043C0006BA3888199812B8D2223A9F0EAA9FBA9EF
:1043D0002EA93FA9E20FF31F20812095462F477099
:1043E0007695679576956795769567950E943519C8
:1043F00099CF20E0D6CFEAA9FBA92EA93FA9E20FC9
:10440000F31F2081EBCF29A130E0220F331F220FB1
:10441000331F220F331F3CA32BA32EA93FA92F5FCD
:104420003F4F3FAB2EAB019799A788A783CF8B85D2
:104430009C858130910508F49CC08430910508F179
:10444000059709F096C08F85988999A788A79CA39E
:104450008BA383E090E09C878B8713C030E020E043
:1044600082179307F9F488A599A529893A898217B3
:104470009307C4F09C012150310939A728A79CA3B8
:104480008BA36BA1462F47706695669566958881CC
:1044900099810E94260B90E02B8D2223F9F22FEFB9
:1044A00030E0DECF88A599A5019629893A8982173F
:1044B0009307ECF16BA17CA18AA190E0880F991F72
:1044C000880F991F880F991F079668177907A4F11D
:1044D000888199812B8D222309F449C02FEF4BA1AC
:1044E000642F7CA14770769567957695679576954C
:1044F00067950E9435192BA13CA12F5F3F4F3CA32C
:104500002BA38AA190E00196880F991F880F991F0D
:10451000880F991F2817390781F588A599A59C014F
:104520002150310939A728A79CA38BA326C086E078
:1045300090E09C878B8721C008811981462F4770A6
:10454000669566956695C8010E94260B6BA17CA1B5
:104550006F5F7F4F462F4770769567957695679585
:1045600076956795282FC8010E943519B1CF20E0B4
:10457000B6CF86E090E09C878B87DF91CF911F912B
:104580000F910895CF92DF92EF92FF920F931F93B6
:10459000CF93DF93EC014AA169A1888199810E94A0
:1045A000E9208B8D81110DC00F8518897E0135E3BF
:1045B000E30EF11CB701CE010E94CB151FAA1EAA63
:1045C00012C027E030E04AA169A1888199810E9448
:1045D000701DEACFB701CE010E946F151FAA1EAA57
:1045E0008DA981110EC089899A8908171907CCF104
:1045F0002EA93FA98DA98217130661F38111F0CF6F
:10460000E9CF888199812B8D2223F1F0EAA9FBA9BA
:104610002EA93FA9A9014F5F5F4F5FAB4EABE20FE1
:10462000F31F20812095680131E0C31AD108402F83
:104630004770B801769567957695679576956795F5
:104640000E9435198601CFCFEAA9FBA92EA93FA95F
:10465000A9014F5F5F4F5FAB4EABE20FF31F2081AD
:10466000E2CFDF91CF911F910F91FF90EF90DF90FC
:10467000CF900895FF920F931F93CF93DF93EC0198
:10468000F62E442309F47BC08B859C8584309105EC
:1046900098F4019738F4CE010E94A90C83E090E0D1
:1046A0009C878B878B859C85059769F0CE010E943E
:1046B000C2220BA11CA11DC00597A1F385E090E0CB
:1046C0009C878B874FC083E090E09C878B87EECFE1
:1046D00020E0402F4770B8017695679576956795ED
:1046E000769567950E9435198DA1080F111D87FDDC
:1046F0001A9588A599A52DA1820F911D27FD9A9540
:104700008017910739F0888199812B8D222301F33D
:104710002FEFDFCFFF20A9F06BA17CA186179707B1
:1047200081F0888199812B8D222311F120E0462F81
:1047300047707695679576956795769567950E940B
:1047400035198BA19CA148A559A52DA1022E000CBD
:10475000330B420F531F8417950761F0820F931F8D
:104760009CA38BA3DF91CF911F910F91FF90089590
:104770002FEFDDCF45E050E05C874B87EFCF8B8597
:104780009C858430910578F4019738F4CE010E941D
:10479000A90C83E090E09C878B87CE010E94C22207
:1047A0000EA11FA118C0059789F386E090E09C87B1
:1047B0008B87D8CF20E0402F4770B801769567955A
:1047C00076956795769567950E9435198DA1080FA6
:1047D000111D87FD1A956BA17CA18DA1082E000CDF
:1047E000990B9B01280F391F2017310739F0888159
:1047F00099812B8D2223F1F22FEFDDCFFF20B9F02D
:1048000028A539A5820F931F6817790781F0888141
:1048100099812B8D2223E9F020E0462F4770769571
:10482000679576956795769567950E9435198BA162
:104830009CA148A559A52DA1022E000C330B420FB7
:10484000531F8417950739F0820F931F9CA38BA3E6
:1048500089CF2FEFE2CF46E050E05C874B87F4CF63
:104860000F931F93CF93DF93EC01662309F4CFC01E
:104870008B859C858430910570F5019710F5CE01EC
:104880000E94A90C8EA19FA128A539A58217930784
:1048900024F43FA32EA399A788A78AAD9BAD892BAB
:1048A00009F11DA28AA190E00196880F991F880F37
:1048B000991F880F991F9CA38BA383E090E09C878E
:1048C0008B87CE010E94C2228BA19CA101979CA341
:1048D0008BA310E022C00597A1F385E090E09C87B0
:1048E0008B878BC086E090E09C878B8786C03DA13C
:1048F000320390011124210F311DEAADFBADE20F0F
:10490000F31F2491462F47707695679576956795A6
:10491000769567950E9435191F5F2EAD121770F5B9
:104920006BA17CA1610F711D8AA190E0880F991F76
:10493000880F991F880F991F07968617970764F3AA
:1049400089A190E0880F991F880F991F880F991FE0
:10495000681779070CF3888199813B8D332339F2ED
:104960003DA1320390011124210F311DEAADFBADB1
:10497000E20FF31FE4912E2F2095C4CF0BA11CA1B1
:10498000015011090EC020E0402F4770B801769504
:10499000679576956795769567950E9435190150CC
:1049A000110988A599A5081719073CF088819981F4
:1049B0002B8D222341F32FEFE7CF8DA18F5F8DA3A6
:1049C000082E000C990BFE01E05CFF4F2081281798
:1049D000190609F00CF41DA22BA13CA189A190E0BD
:1049E000880F991F880F991F880F991F4EAD841B40
:1049F000910901972817390729F0DF91CF911F916D
:104A00000F91089585E090E09C878B87F6CF8B858A
:104A10009C858430910570F5019710F5CE010E94B8
:104A2000A90C8EA19FA128A539A58217930724F46C
:104A30003FA32EA399A788A78CAD9DAD892B09F123
:104A400089A190E0880F991F880F991F880F991FDF
:104A500001979CA38BA31DA283E090E09C878B878A
:104A6000CE010E94C2228BA19CA101969CA38BA384
:104A700010E022C0059791F286E090E09C878B873A
:104A8000BCCF86E090E09C878B87B7CF3DA13203F7
:104A900090011124210F311DECADFDADE20FF31F8C
:104AA0002491462F4770769567957695679576950C
:104AB00067950E9435191F5F2FAD121770F56BA116
:104AC0007CA1611B71098AA190E0880F991F880F52
:104AD000991F880F991F07968617970764F389A176
:104AE00090E0880F991F880F991F880F991F6817EA
:104AF00079070CF3888199813B8D332339F23DA1ED
:104B0000320390011124210F311DECADFDADE20FF8
:104B1000F31FE4912E2F2095C4CF0BA11CA1021BE3
:104B200011090EC020E0402F4770B80176956795B7
:104B300076956795769567950E943519015011090C
:104B400088A599A5081719073CF0888199812B8DB4
:104B5000222341F32FEFE7CF8DA18F5F8DA3082E86
:104B6000000C990BFE01EF5BFF4F208128171906FF
:104B700009F00CF41DA24BA15CA18AA190E0880F62
:104B8000991F880F991F880F991F07962FAD820FC5
:104B9000911D01964817590709F02FCF86E090E044
:104BA0009C878B872ACFCF92DF92FF920F931F9320
:104BB000CF93DF93EC01F42E662309F47BC08B8541
:104BC0009C8584309105F0F4019748F4CE010E9451
:104BD000A90C1CA21BA283E090E09C878B87CE01CE
:104BE0000E94C2228BA19CA18830910591F021E006
:104BF00030E0690102C0CC0CDD1C8A95E2F70EA101
:104C00001FA123C0059759F385E090E09C878B870F
:104C1000C9C085E090E09C878B87C4C02C2D2823D9
:104C2000888199813B8D31112095402F4770B801C3
:104C30007695679576956795769567950E9435196F
:104C40008DA1080F111D87FD1A9588A599A52DA185
:104C5000820F911D27FD9A958017910729F18B8D61
:104C6000882381F0402F4770602F66956695669582
:104C7000888199810E94260B8095FF2079F22C2D46
:104C80002095CDCF402F4770602F6695669566952D
:104C9000888199810E94260BFF2021F02C2D2095E0
:104CA0002823BECF2C2DFCCF8BA19CA101969CA3C9
:104CB0008BA378C08B859C8584309105E8F401979F
:104CC00058F4CE010E94A90C87E090E09CA38BA32E
:104CD00083E090E09C878B87CE010E94C2228BA14B
:104CE0009CA1992384F0DD24D39401C0DD0C8A9526
:104CF000EAF70EA11FA120C0059719F386E090E006
:104D00009C878B874FC0D12CF4CF2D2D28238881F1
:104D100099813B8D31112095402F4770B8017695D0
:104D2000679576956795769567950E9435198DA15B
:104D3000080F111D87FD1A9588A599A52DA1820F31
:104D4000911D27FD9A958017910729F18B8D882356
:104D500081F0402F4770602F669566956695888133
:104D600099810E94260B8095FF2079F22D2D2095A8
:104D7000CDCF402F4770602F6695669566958881E8
:104D800099810E94260BFF2021F02D2D20952823AC
:104D9000BECF2D2DFCCF8BA19CA199235CF0019758
:104DA0009CA38BA3DF91CF911F910F91FF90DF9078
:104DB000CF90089526E030E03C872B87F0CFFF921C
:104DC0000F931F93CF93DF93EC01F42E662309F426
:104DD00060C08B859C8584309105B0F4019738F4D0
:104DE000CE010E94A90C83E090E09C878B87CE01C6
:104DF0000E94C2222BA13CA188A599A5281739079A
:104E000051F00EA11FA125C0059789F385E090E020
:104E10009C878B8799C085E090E09C878B8794C0A6
:104E2000FF2091F08BA19CA18017910769F423C00A
:104E300020E0402F4770B801769567957695679585
:104E4000769567950E9435198DA1080F111D87FD74
:104E50001A9528A539A58DA1082E000C990B280FAD
:104E6000391F2017310771F0F110DACF8BA19CA107
:104E700080179107A9F2888199812B8D2223C1F295
:104E80002FEFD7CF2BA13CA1820F931F9CA38BA305
:104E90005BC08B859C858430910578F4019738F44C
:104EA000CE010E94A90C83E090E09C878B87CE0105
:104EB0000E94C2220EA11FA120C0059789F386E09F
:104EC00090E09C878B8740C0FF2091F08BA19CA134
:104ED0008017910769F424C020E0402F4770B80183
:104EE0007695679576956795769567950E943519BD
:104EF0008DA1080F111D87FD1A9528A539A58DA133
:104F0000082E000C990BA901480F591F4017510793
:104F100071F0F110D9CF8BA19CA180179107A1F25C
:104F2000888199812B8D2223B9F22FEFD6CF4BA107
:104F30005CA14217530724F426E030E03C872B871E
:104F4000840F951F9CA38BA3DF91CF911F910F918D
:104F5000FF900895FF920F931F93CF93DF93EC017F
:104F60008B859C858430910560F40197C0F480E0C6
:104F70008B3088F4E82FF0E0E45DFD4F10828F5F06
:104F8000F7CF0597A1F3662309F4ABC085E090E065
:104F90009C878B879DC083E090E09C878B87062F42
:104FA0001CA21BA26BE070E080E090E00E94401425
:104FB000162F68E070E080E090E00E9440142BA182
:104FC0003CA12F5F3F4F3CA32BA3412F50E0FA01A0
:104FD000E45DFD4F808190E0E62F02C095958795B6
:104FE0006A95E2F780FF03C028383341DCF221E004
:104FF00030E002C0220F331FEA95E2F7FA01E45DC8
:10500000FD4F8081822B8083CE010E94C2221CA290
:105010001BA219A1110F110F110F1CC0EBA1FCA1B4
:10502000E45DFD4F208120952823612F70E0769567
:10503000679576956795769567954F2D88819981C7
:105040000E9435198BA19CA101969CA38BA30B9761
:1050500011F11F5F8AA190E0880F991F880F991F97
:10506000880F991F07961817190609F0BCF4812FAD
:105070008770F82E482F612F669566956695888112
:1050800099810E94260B002349F2EBA1FCA1E45D6B
:10509000FD4F2081C9CF1CA21BA2DBCF80E091E095
:1050A00001C08F5F992361F0883050F4E82FF0E061
:1050B000E45DFD4F208191E02F3F99F390E0F1CF27
:1050C000992331F001110AC086E090E09C878B871C
:1050D000DF91CF911F910F91FF90089585E090E0AF
:1050E000F5CF86E090E054CFCF93DF93EC016111D0
:1050F00010C04AA169A1888199810E94E9208B8D05
:1051000081110EC086E090E09C878B87DF91CF9164
:1051100008950E94C22285E090E09C878B87F6CF9D
:1051200027E030E04AA169A1888199810E94701D21
:10513000E9CFFF920F931F93CF93DF93EC01F62EED
:10514000442309F48CC08B859C8584309105F0F450
:10515000019768F4CE010E94A90CFF2019F18FEF8E
:1051600090E09CA38BA383E090E09C878B87CE018B
:105170000E94C2222BA13CA1FF20B9F090E080E068
:1051800028173907A9F00EA11FA134C0059779F39C
:1051900085E090E09C878B87DF91CF911F910F91E5
:1051A000FF90089581E090E0DCCF8FEF90E0E8CFB2
:1051B00085E090E09C878B87EFCF402F4770602F72
:1051C000669566956695888199810E94260B2AC00E
:1051D0002BA12CC0402F4770B80176956795769526
:1051E0006795769567950E9435198DA1080F111D59
:1051F00087FD1A9588A599A52DA1820F911D27FDE0
:105200009A9580179107D1F08B8D8823B1F2402FAA
:105210004770602F669566956695888199810E9492
:10522000260B8095FF20A1F22BA1209528238881B1
:1052300099813B8D332371F22095CCCFFF2039F03B
:105240008BA19CA1959587959CA38BA3A5CF8BA1A2
:105250009CA1880F991F81609CA38BA39DCF8B85F8
:105260009C8584309105A8F4019768F4CE010E94D2
:10527000A90CFF20A9F081E090E09CA38BA383E020
:1052800090E09C878B87CE010E94C2220EA11FA1B5
:1052900027C0059759F386E090E09C878B877CCFE9
:1052A0008FEF90E0EACF402F4770602F66956695AC
:1052B0006695888199810E94260B2AC02BA12CC05B
:1052C000402F4770B80176956795769567957695E6
:1052D00067950E9435198DA1080F111D87FD1A953C
:1052E00088A599A52DA1820F911D27FD9A9580175C
:1052F0009107D1F08B8D8823B1F2402F4770602F3A
:10530000669566956695888199810E94260B8095A1
:10531000FF20A1F22BA120952823888199813B8D24
:10532000332371F22095CCCF8BA19CA1FF2069F093
:105330002FEF30E08217930759F0FF2071F0880FAC
:10534000991F81609CA38BA327CF30E020E0F2CF90
:1053500026E030E03C872B87F0CF959587959CA37E
:105360008BA31ACFFF920F931F93CF93DF93EC0180
:10537000F62E442309F4D3C08B859C858330910598
:1053800040F0039709F450C085E090E09C878B873C
:105390003FC06F85788989899A899B01281B390BC1
:1053A000C9019923DCF195958795AC014F5F5F4F5B
:1053B0005CA34BA3FF2041F1888199812B8D22238F
:1053C00079F120E0641B750B462F47707695679541
:1053D00076956795769567950E94351988819981AC
:1053E0002B8D2223F9F020E069897A894BA15CA1F9
:1053F000640F751F462F477076956795769567956C
:10540000769567950E94351983E090E09C878B879D
:10541000DF91CF911F910F91FF9008950196C3CF17
:105420002FEFD0CF2FEFE0CF8BA19CA1992334F0A9
:10543000CE010E94C22210E000E018C085E090E09A
:105440009C878B87E5CF20E01CC020E06F857889A2
:10545000601B710B462F477076956795769567951B
:10546000769567950E9435190F5F1F4F6BA17CA140
:1054700006171707DCF4888199812B8D222319F3F5
:105480002FEF69897A89600F711F462F47707695D3
:10549000679576956795769567950E943519888109
:1054A00099812B8D222389F22FEFD0CF6150710982
:1054B0007CA36BA3FF2009F4ABCF77230CF4A8CF18
:1054C000888199812B8D222331F120E049895A89E5
:1054D000640F751F462F477076956795769567958B
:1054E000769567950E943519888199812B8D2111B8
:1054F00014C02FEF6F8578894BA15CA1641B750BDD
:10550000462F47707695679576956795769567955A
:105510000E9435197DCF2FEFD9CF20E0EBCF8B85BF
:105520009C858330910509F43FC008F0BEC0019707
:1055300008F4BEC04AA169A1888199810E94E9202E
:105540008B8D8111BAC0CE010E94C2221CA21BA267
:10555000FF2031F1888199812B8D222309F4B6C077
:1055600020E04F85642F788947707695679576950A
:105570006795769567950E943519888199812B8D5D
:10558000222309F4A5C020E04989642F7A89477055
:105590007695679576956795769567950E94351906
:1055A00083E090E09C878B874BA15CA16F85788915
:1055B00089899A899B01281B390BC90199230CF40D
:1055C00089C095958795841795070CF485C08881C7
:1055D00099812B8D222309F484C02FEF641B750B56
:1055E000462F47707695679576956795769567957A
:1055F0000E943519888199812B8D222309F473C06B
:105600002FEF69897A894BA15CA1640F751F462F22
:1056100047707695679576956795769567950E941C
:1056200035194BA15CA14F5F5F4F5CA34BA3FF20DB
:1056300009F4EECE6F85788989899A899B01281BA8
:10564000390BC90199230CF450C09595879584179F
:1056500095070CF4DDCE888199812B8D222309F4E6
:1056600046C020E0641B750B462F47707695679502
:1056700076956795769567950E9435198881998109
:105680002B8D211136C02FEF69897A894BA15CA13E
:10569000640F751F462F47707695679576956795C9
:1056A000769567950E943519B3CE059709F442CFD8
:1056B00086E090E09C878B87ABCE27E030E04AA164
:1056C00069A1888199810E94701D3DCF2FEF49CF3C
:1056D0002FEF5ACF019675CF86E090E09C878B879D
:1056E00097CE20E07BCF20E08CCF0196AECF2FEF7E
:1056F000B9CF20E0C9CFFF920F931F93CF93DF93D1
:10570000EC01062F662309F484C08B859C858430C8
:105710009105C8F4019730F41CA21BA283E090E02D
:105720009C878B874AA169A1888199810E94E92081
:105730008B8D81110FC0CE010E94C22219A1110FC1
:10574000110F110F2BC0059769F385E090E09C873E
:105750008B8754C027E030E04AA169A188819981F4
:105760000E94701DE8CF4BA15CA127E030E0241B14
:10577000350B01C0880F2A95EAF7282F612F70E0BA
:105780007695679576956795769567954F2D88817F
:1057900099810E94351981E008271F5F8AA190E056
:1057A000880F991F880F991F880F991F0796181740
:1057B000190609F0E4F4812F8770F82E482F612F25
:1057C000669566956695888199810E94260B0023CF
:1057D00051F22BA13CA147E050E0421B530B282F74
:1057E00030E002C0359527954A95E2F7C7CF8BA1E7
:1057F0009CA101969CA38BA3089731F0DF91CF91D8
:105800001F910F91FF90089585E090E09C878B8712
:10581000F5CF8B859C858430910580F4019740F409
:1058200081E090E09CA38BA383E090E09C878B8732
:1058300019A1110F110F110F01E01FC0059781F37E
:1058400086E090E09C878B87D9CF9BA1282F30E002
:1058500002C0359527959A95E2F7612F70E076950D
:10586000679576956795769567954F2D888199818F
:105870000E94351981E008271F5F8AA190E0880FF8
:10588000991F880F991F880F991F079618171906D7
:1058900009F0ACF4812F8770F82E482F612F6695A0
:1058A00066956695888199810E94260B002369F28E
:1058B0009BA1282F01C0220F9A95EAF7CECF8BA18A
:1058C0009CA101969CA38BA3089709F097CF86E033
:1058D00090E09C878B8792CF0F931F93CF93DF939A
:1058E000EC01162F8B859C858230910509F460C0F0
:1058F00070F08330910509F4C0C0059741F066232C
:1059000009F4DDC085E090E09C878B874CC009A13D
:1059100010E0000F111F000F111F000F111F1AC000
:10592000402F4770602F66956695669588819981AE
:105930000E94260B29C02AEA2AC0402F4770B801CE
:105940007695679576956795769567950E94351952
:105950000F5F1F4F8AA190E0880F991F880F991F32
:10596000880F991F079680179107CCF08B8D88239D
:10597000B9F2402F4770602F6695669566958881CD
:1059800099810E94260B809500FFD5CF25E5282B15
:10599000888199813B8D332381F22095CECF82E09F
:1059A00090E09C878B87DF91CF911F910F91089595
:1059B0004AA169A1888199810E94E9208B8D81117A
:1059C0000BC0111112C009A110E0000F111F000F30
:1059D000111F000F111F27C027E030E04AA169A165
:1059E000888199810E94701DECCFCE010E94C22255
:1059F000EACF402F4770602F66956695669588813F
:105A000099810E94260B29C025E52AC0402F4770A6
:105A1000B8017695679576956795769567950E9416
:105A200035190F5F1F4F8AA190E0880F991F880FCB
:105A3000991F880F991F079680179107CCF08B8DBF
:105A40008823B9F2402F4770602F6695669566955A
:105A5000888199810E94260B809500FFD5CF2AEA84
:105A6000282B888199813B8D332381F22095CECFDD
:105A700083E090E09C878B8796CF4AA169A18881BB
:105A800099810E94E9208B8D811109C0111110C0EC
:105A9000111112C086E090E09C878B8784CF27E0AD
:105AA00030E04AA169A1888199810E94701DEECFE2
:105AB000CE010E94C222ECCF85E090E0EDCF86E0DF
:105AC00090E022CFDF92EF92FF920F931F93CF933C
:105AD000DF93EC01D62E442309F4E0C08B859C852E
